{
  "contractName": "NFTSwap",
  "abi": [
    {
      "inputs": [],
      "stateMutability": "nonpayable",
      "type": "constructor"
    },
    {
      "anonymous": false,
      "inputs": [
        {
          "indexed": true,
          "internalType": "address",
          "name": "contractAddr",
          "type": "address"
        },
        {
          "indexed": true,
          "internalType": "uint256",
          "name": "tokenId",
          "type": "uint256"
        }
      ],
      "name": "NFTApproved",
      "type": "event"
    },
    {
      "anonymous": false,
      "inputs": [
        {
          "indexed": false,
          "internalType": "address",
          "name": "requestedContractAddr",
          "type": "address"
        },
        {
          "indexed": false,
          "internalType": "uint256",
          "name": "requestedTokenId",
          "type": "uint256"
        },
        {
          "indexed": false,
          "internalType": "address",
          "name": "offeredContractAddr",
          "type": "address"
        },
        {
          "indexed": false,
          "internalType": "uint256",
          "name": "offeredTokenId",
          "type": "uint256"
        },
        {
          "indexed": false,
          "internalType": "int256",
          "name": "exchangeValue",
          "type": "int256"
        },
        {
          "indexed": false,
          "internalType": "uint256",
          "name": "expires",
          "type": "uint256"
        }
      ],
      "name": "OfferCancelled",
      "type": "event"
    },
    {
      "anonymous": false,
      "inputs": [
        {
          "indexed": false,
          "internalType": "address",
          "name": "requestedContractAddr",
          "type": "address"
        },
        {
          "indexed": false,
          "internalType": "uint256",
          "name": "requestedTokenId",
          "type": "uint256"
        },
        {
          "indexed": false,
          "internalType": "address",
          "name": "offeredContractAddr",
          "type": "address"
        },
        {
          "indexed": false,
          "internalType": "uint256",
          "name": "offeredTokenId",
          "type": "uint256"
        },
        {
          "indexed": false,
          "internalType": "int256",
          "name": "exchangeValue",
          "type": "int256"
        },
        {
          "indexed": false,
          "internalType": "uint256",
          "name": "expires",
          "type": "uint256"
        }
      ],
      "name": "OfferMade",
      "type": "event"
    },
    {
      "anonymous": false,
      "inputs": [
        {
          "indexed": false,
          "internalType": "address",
          "name": "takenContractAddr",
          "type": "address"
        },
        {
          "indexed": false,
          "internalType": "uint256",
          "name": "takenTokenId",
          "type": "uint256"
        },
        {
          "indexed": false,
          "internalType": "address",
          "name": "givenContractAddr",
          "type": "address"
        },
        {
          "indexed": false,
          "internalType": "uint256",
          "name": "givenTokenId",
          "type": "uint256"
        },
        {
          "indexed": false,
          "internalType": "int256",
          "name": "exchangeValue",
          "type": "int256"
        },
        {
          "indexed": false,
          "internalType": "address",
          "name": "winningAddress",
          "type": "address"
        }
      ],
      "name": "OfferTaken",
      "type": "event"
    },
    {
      "anonymous": false,
      "inputs": [
        {
          "indexed": true,
          "internalType": "address",
          "name": "contractAddr",
          "type": "address"
        },
        {
          "indexed": true,
          "internalType": "uint256",
          "name": "tokenId",
          "type": "uint256"
        }
      ],
      "name": "TokenListed",
      "type": "event"
    },
    {
      "anonymous": false,
      "inputs": [
        {
          "indexed": true,
          "internalType": "address",
          "name": "contractAddr",
          "type": "address"
        },
        {
          "indexed": true,
          "internalType": "uint256",
          "name": "tokenId",
          "type": "uint256"
        }
      ],
      "name": "TokenUnlisted",
      "type": "event"
    },
    {
      "anonymous": false,
      "inputs": [
        {
          "indexed": true,
          "internalType": "address",
          "name": "contractAddr",
          "type": "address"
        }
      ],
      "name": "UserApproved",
      "type": "event"
    },
    {
      "inputs": [
        {
          "internalType": "uint256",
          "name": "",
          "type": "uint256"
        }
      ],
      "name": "listedTokens",
      "outputs": [
        {
          "internalType": "address",
          "name": "owner",
          "type": "address"
        },
        {
          "internalType": "address",
          "name": "contractAddr",
          "type": "address"
        },
        {
          "internalType": "uint256",
          "name": "tokenId",
          "type": "uint256"
        }
      ],
      "stateMutability": "view",
      "type": "function"
    },
    {
      "inputs": [
        {
          "internalType": "uint256",
          "name": "",
          "type": "uint256"
        }
      ],
      "name": "offers",
      "outputs": [
        {
          "internalType": "address",
          "name": "offerer",
          "type": "address"
        },
        {
          "internalType": "uint256",
          "name": "requestedIndex",
          "type": "uint256"
        },
        {
          "internalType": "uint256",
          "name": "offeredIndex",
          "type": "uint256"
        },
        {
          "internalType": "int256",
          "name": "exchangeValue",
          "type": "int256"
        },
        {
          "internalType": "uint256",
          "name": "expires",
          "type": "uint256"
        }
      ],
      "stateMutability": "view",
      "type": "function"
    },
    {
      "inputs": [
        {
          "internalType": "address",
          "name": "_contractAddr",
          "type": "address"
        },
        {
          "internalType": "uint256",
          "name": "_tokenId",
          "type": "uint256"
        }
      ],
      "name": "escrowToken",
      "outputs": [
        {
          "internalType": "uint256",
          "name": "",
          "type": "uint256"
        }
      ],
      "stateMutability": "nonpayable",
      "type": "function"
    },
    {
      "inputs": [
        {
          "internalType": "uint256",
          "name": "_listedTokenIndex",
          "type": "uint256"
        }
      ],
      "name": "withdrawToken",
      "outputs": [],
      "stateMutability": "nonpayable",
      "type": "function"
    },
    {
      "inputs": [
        {
          "internalType": "uint256",
          "name": "_requestedIndex",
          "type": "uint256"
        },
        {
          "internalType": "address",
          "name": "_contractAddrOffered",
          "type": "address"
        },
        {
          "internalType": "uint256",
          "name": "_tokenIdOffered",
          "type": "uint256"
        },
        {
          "internalType": "uint256",
          "name": "fee",
          "type": "uint256"
        },
        {
          "internalType": "uint256",
          "name": "_expiresIn",
          "type": "uint256"
        }
      ],
      "name": "makeOffer",
      "outputs": [
        {
          "internalType": "uint256",
          "name": "",
          "type": "uint256"
        }
      ],
      "stateMutability": "payable",
      "type": "function"
    },
    {
      "inputs": [
        {
          "internalType": "uint256",
          "name": "_requestedIndex",
          "type": "uint256"
        },
        {
          "internalType": "uint256",
          "name": "_expiresIn",
          "type": "uint256"
        },
        {
          "internalType": "uint256",
          "name": "funds",
          "type": "uint256"
        }
      ],
      "name": "makeOfferWithFunds",
      "outputs": [
        {
          "internalType": "uint256",
          "name": "",
          "type": "uint256"
        }
      ],
      "stateMutability": "payable",
      "type": "function"
    },
    {
      "inputs": [
        {
          "internalType": "uint256",
          "name": "_offerId",
          "type": "uint256"
        },
        {
          "internalType": "uint256",
          "name": "fee",
          "type": "uint256"
        }
      ],
      "name": "takeOffer",
      "outputs": [],
      "stateMutability": "payable",
      "type": "function"
    },
    {
      "inputs": [
        {
          "internalType": "uint256",
          "name": "_offerId",
          "type": "uint256"
        }
      ],
      "name": "cancelOffer",
      "outputs": [],
      "stateMutability": "nonpayable",
      "type": "function"
    },
    {
      "inputs": [],
      "name": "withdraw",
      "outputs": [],
      "stateMutability": "payable",
      "type": "function"
    }
  ],
  "bytecode": "0x60806040526000805534801561001457600080fd5b5033600360006101000a81548173ffffffffffffffffffffffffffffffffffffffff021916908373ffffffffffffffffffffffffffffffffffffffff1602179055506120ac806100656000396000f3fe6080604052600436106100865760003560e01c80635a9d1ac3116100595780635a9d1ac31461010a57806381028694146101495780638a72ea6a146101865780639d972324146101c7578063ef706adf146101f757610086565b806327c28b811461008b5780633ccfd60b146100a757806350baa622146100b157806358c9043d146100da575b600080fd5b6100a560048036038101906100a091906117a0565b610220565b005b6100af61095a565b005b3480156100bd57600080fd5b506100d860048036038101906100d391906117e0565b610a85565b005b6100f460048036038101906100ef919061186b565b610bf2565b60405161010191906118f5565b60405180910390f35b34801561011657600080fd5b50610131600480360381019061012c91906117e0565b610f79565b6040516101409392919061191f565b60405180910390f35b34801561015557600080fd5b50610170600480360381019061016b9190611956565b610ff3565b60405161017d91906118f5565b60405180910390f35b34801561019257600080fd5b506101ad60048036038101906101a891906117e0565b611216565b6040516101be9594939291906119af565b60405180910390f35b6101e160048036038101906101dc9190611a02565b61127c565b6040516101ee91906118f5565b60405180910390f35b34801561020357600080fd5b5061021e600480360381019061021991906117e0565b6114ad565b005b60006002838154811061023657610235611a55565b5b906000526020600020906005020190504381600401541161025657600080fd5b60008160030154121561026857600080fd5b81341461027457600080fd5b6000600182600101548154811061028e5761028d611a55565b5b906000526020600020906003020190503373ffffffffffffffffffffffffffffffffffffffff168160000160009054906101000a900473ffffffffffffffffffffffffffffffffffffffff1673ffffffffffffffffffffffffffffffffffffffff16146102fa57600080fd5b6000600183600201548154811061031457610313611a55565b5b90600052602060002090600302019050600073ffffffffffffffffffffffffffffffffffffffff168160000160009054906101000a900473ffffffffffffffffffffffffffffffffffffffff1673ffffffffffffffffffffffffffffffffffffffff16036105e857600061038661170b565b9050600060328210156104e1578360010160009054906101000a900473ffffffffffffffffffffffffffffffffffffffff1673ffffffffffffffffffffffffffffffffffffffff1663908a5270338760000160009054906101000a900473ffffffffffffffffffffffffffffffffffffffff1687600201546040518463ffffffff1660e01b815260040161041c9392919061191f565b600060405180830381600087803b15801561043657600080fd5b505af115801561044a573d6000803e3d6000fd5b505050508460000160009054906101000a900473ffffffffffffffffffffffffffffffffffffffff1690508460000160009054906101000a900473ffffffffffffffffffffffffffffffffffffffff168460000160006101000a81548173ffffffffffffffffffffffffffffffffffffffff021916908373ffffffffffffffffffffffffffffffffffffffff160217905550610573565b3373ffffffffffffffffffffffffffffffffffffffff166108fc86600301549081150290604051600060405180830381858888f1935050505015801561052b573d6000803e3d6000fd5b50339050338360000160006101000a81548173ffffffffffffffffffffffffffffffffffffffff021916908373ffffffffffffffffffffffffffffffffffffffff1602179055505b7f71c61c97f6ab9377235a7bd6e77bd244d660ca67d0f6c1b988ed95358ed35bc16000808660010160009054906101000a900473ffffffffffffffffffffffffffffffffffffffff1687600201548960030154866040516105d996959493929190611ac9565b60405180910390a150506108e7565b60006105f261170b565b90506000603282101561074d578360010160009054906101000a900473ffffffffffffffffffffffffffffffffffffffff1673ffffffffffffffffffffffffffffffffffffffff1663908a5270338760000160009054906101000a900473ffffffffffffffffffffffffffffffffffffffff1687600201546040518463ffffffff1660e01b81526004016106889392919061191f565b600060405180830381600087803b1580156106a257600080fd5b505af11580156106b6573d6000803e3d6000fd5b505050508460000160009054906101000a900473ffffffffffffffffffffffffffffffffffffffff1690508460000160009054906101000a900473ffffffffffffffffffffffffffffffffffffffff168460000160006101000a81548173ffffffffffffffffffffffffffffffffffffffff021916908373ffffffffffffffffffffffffffffffffffffffff16021790555061084f565b8360010160009054906101000a900473ffffffffffffffffffffffffffffffffffffffff1673ffffffffffffffffffffffffffffffffffffffff1663908a52708660000160009054906101000a900473ffffffffffffffffffffffffffffffffffffffff163387600201546040518463ffffffff1660e01b81526004016107d69392919061191f565b600060405180830381600087803b1580156107f057600080fd5b505af1158015610804573d6000803e3d6000fd5b50505050339050338360000160006101000a81548173ffffffffffffffffffffffffffffffffffffffff021916908373ffffffffffffffffffffffffffffffffffffffff1602179055505b7f71c61c97f6ab9377235a7bd6e77bd244d660ca67d0f6c1b988ed95358ed35bc18360010160009054906101000a900473ffffffffffffffffffffffffffffffffffffffff1684600201548660010160009054906101000a900473ffffffffffffffffffffffffffffffffffffffff1687600201548960030154866040516108dc96959493929190611b2a565b60405180910390a150505b600285815481106108fb576108fa611a55565b5b9060005260206000209060050201600080820160006101000a81549073ffffffffffffffffffffffffffffffffffffffff0219169055600182016000905560028201600090556003820160009055600482016000905550505050505050565b3373ffffffffffffffffffffffffffffffffffffffff16600360009054906101000a900473ffffffffffffffffffffffffffffffffffffffff1673ffffffffffffffffffffffffffffffffffffffff16146109ea576040517f08c379a00000000000000000000000000000000000000000000000000000000081526004016109e190611be8565b60405180910390fd5b6000600360009054906101000a900473ffffffffffffffffffffffffffffffffffffffff1673ffffffffffffffffffffffffffffffffffffffff1647604051610a3290611c39565b60006040518083038185875af1925050503d8060008114610a6f576040519150601f19603f3d011682016040523d82523d6000602084013e610a74565b606091505b5050905080610a8257600080fd5b50565b600060018281548110610a9b57610a9a611a55565b5b906000526020600020906003020190503373ffffffffffffffffffffffffffffffffffffffff168160000160009054906101000a900473ffffffffffffffffffffffffffffffffffffffff1673ffffffffffffffffffffffffffffffffffffffff1614610b0757600080fd5b80600201548160010160009054906101000a900473ffffffffffffffffffffffffffffffffffffffff1673ffffffffffffffffffffffffffffffffffffffff167f24287c09523dfd960e13a9774c247fb28a2ccb301eb4208b0d4072bcd0f1826e60405160405180910390a360018281548110610b8757610b86611a55565b5b9060005260206000209060030201600080820160006101000a81549073ffffffffffffffffffffffffffffffffffffffff02191690556001820160006101000a81549073ffffffffffffffffffffffffffffffffffffffff0219169055600282016000905550505050565b60008473ffffffffffffffffffffffffffffffffffffffff16636352211e856040518263ffffffff1660e01b8152600401610c2d91906118f5565b602060405180830381865afa158015610c4a573d6000803e3d6000fd5b505050506040513d601f19601f82011682018060405250810190610c6e9190611c63565b73ffffffffffffffffffffffffffffffffffffffff163373ffffffffffffffffffffffffffffffffffffffff1614610ca557600080fd5b823414610cb157600080fd5b60008211610cbe57600080fd5b600060018781548110610cd457610cd3611a55565b5b90600052602060002090600302019050600073ffffffffffffffffffffffffffffffffffffffff168160000160009054906101000a900473ffffffffffffffffffffffffffffffffffffffff1673ffffffffffffffffffffffffffffffffffffffff1603610d4157600080fd5b6000610d4d8787610ff3565b9050600060018281548110610d6557610d64611a55565b5b906000526020600020906003020190503373ffffffffffffffffffffffffffffffffffffffff168160000160009054906101000a900473ffffffffffffffffffffffffffffffffffffffff1673ffffffffffffffffffffffffffffffffffffffff1614610dd157600080fd5b60026040518060a001604052803373ffffffffffffffffffffffffffffffffffffffff1681526020018b8152602001848152602001600081526020018743610e199190611cbf565b815250908060018154018082558091505060019003906000526020600020906005020160009091909190915060008201518160000160006101000a81548173ffffffffffffffffffffffffffffffffffffffff021916908373ffffffffffffffffffffffffffffffffffffffff160217905550602082015181600101556040820151816002015560608201518160030155608082015181600401555050600060028054905090507f38cf6d447ae9207bb39de80b5ad500bc792e876f99adf3d6ee1efe6050e9d7938460010160009054906101000a900473ffffffffffffffffffffffffffffffffffffffff1685600201548460010160009054906101000a900473ffffffffffffffffffffffffffffffffffffffff16856002015460008b43610f439190611cbf565b604051610f5596959493929190611d46565b60405180910390a1600181610f6a9190611da7565b94505050505095945050505050565b60018181548110610f8957600080fd5b90600052602060002090600302016000915090508060000160009054906101000a900473ffffffffffffffffffffffffffffffffffffffff16908060010160009054906101000a900473ffffffffffffffffffffffffffffffffffffffff16908060020154905083565b60008273ffffffffffffffffffffffffffffffffffffffff16636352211e836040518263ffffffff1660e01b815260040161102e91906118f5565b602060405180830381865afa15801561104b573d6000803e3d6000fd5b505050506040513d601f19601f8201168201806040525081019061106f9190611c63565b73ffffffffffffffffffffffffffffffffffffffff163373ffffffffffffffffffffffffffffffffffffffff16146110a657600080fd5b600160405180606001604052803373ffffffffffffffffffffffffffffffffffffffff1681526020018573ffffffffffffffffffffffffffffffffffffffff16815260200184815250908060018154018082558091505060019003906000526020600020906003020160009091909190915060008201518160000160006101000a81548173ffffffffffffffffffffffffffffffffffffffff021916908373ffffffffffffffffffffffffffffffffffffffff16021790555060208201518160010160006101000a81548173ffffffffffffffffffffffffffffffffffffffff021916908373ffffffffffffffffffffffffffffffffffffffff16021790555060408201518160020155505060006001805490509050828473ffffffffffffffffffffffffffffffffffffffff167f252e0864c3c3e0062044056bdcb38cb8949574a594be507fdebe92cd20a2394760405160405180910390a360018161120d9190611da7565b91505092915050565b6002818154811061122657600080fd5b90600052602060002090600502016000915090508060000160009054906101000a900473ffffffffffffffffffffffffffffffffffffffff16908060010154908060020154908060030154908060040154905085565b600080831161128a57600080fd5b60646066836112999190611ddb565b6112a39190611e64565b34146112ae57600080fd5b6000600185815481106112c4576112c3611a55565b5b90600052602060002090600302019050600073ffffffffffffffffffffffffffffffffffffffff168160000160009054906101000a900473ffffffffffffffffffffffffffffffffffffffff1673ffffffffffffffffffffffffffffffffffffffff160361133157600080fd5b60026040518060a001604052803373ffffffffffffffffffffffffffffffffffffffff1681526020018781526020016000815260200185815260200186436113799190611cbf565b815250908060018154018082558091505060019003906000526020600020906005020160009091909190915060008201518160000160006101000a81548173ffffffffffffffffffffffffffffffffffffffff021916908373ffffffffffffffffffffffffffffffffffffffff160217905550602082015181600101556040820151816002015560608201518160030155608082015181600401555050600060028054905090507f38cf6d447ae9207bb39de80b5ad500bc792e876f99adf3d6ee1efe6050e9d7938260010160009054906101000a900473ffffffffffffffffffffffffffffffffffffffff168360020154600080348a4361147b9190611cbf565b60405161148d96959493929190611e95565b60405180910390a16001816114a29190611da7565b925050509392505050565b6000600282815481106114c3576114c2611a55565b5b906000526020600020906005020190503373ffffffffffffffffffffffffffffffffffffffff168160000160009054906101000a900473ffffffffffffffffffffffffffffffffffffffff1673ffffffffffffffffffffffffffffffffffffffff161461152f57600080fd5b6000816003015413156115ac578060000160009054906101000a900473ffffffffffffffffffffffffffffffffffffffff1673ffffffffffffffffffffffffffffffffffffffff166108fc82600301549081150290604051600060405180830381858888f193505050501580156115aa573d6000803e3d6000fd5b505b600060018260010154815481106115c6576115c5611a55565b5b90600052602060002090600302019050600060018360020154815481106115f0576115ef611a55565b5b906000526020600020906003020190507f3c176926106da32180ee683f1768c3ac48644743b0764cc822b18576a4700a908260010160009054906101000a900473ffffffffffffffffffffffffffffffffffffffff1683600201548360010160009054906101000a900473ffffffffffffffffffffffffffffffffffffffff1684600201548760030154886004015460405161169196959493929190611ef6565b60405180910390a1600284815481106116ad576116ac611a55565b5b9060005260206000209060050201600080820160006101000a81549073ffffffffffffffffffffffffffffffffffffffff02191690556001820160009055600282016000905560038201600090556004820160009055505050505050565b600080600081548092919061171f90611f57565b91905055506064423360005460405160200161173d93929190612008565b6040516020818303038152906040528051906020012060001c6117609190612045565b905090565b600080fd5b6000819050919050565b61177d8161176a565b811461178857600080fd5b50565b60008135905061179a81611774565b92915050565b600080604083850312156117b7576117b6611765565b5b60006117c58582860161178b565b92505060206117d68582860161178b565b9150509250929050565b6000602082840312156117f6576117f5611765565b5b60006118048482850161178b565b91505092915050565b600073ffffffffffffffffffffffffffffffffffffffff82169050919050565b60006118388261180d565b9050919050565b6118488161182d565b811461185357600080fd5b50565b6000813590506118658161183f565b92915050565b600080600080600060a0868803121561188757611886611765565b5b60006118958882890161178b565b95505060206118a688828901611856565b94505060406118b78882890161178b565b93505060606118c88882890161178b565b92505060806118d98882890161178b565b9150509295509295909350565b6118ef8161176a565b82525050565b600060208201905061190a60008301846118e6565b92915050565b6119198161182d565b82525050565b60006060820190506119346000830186611910565b6119416020830185611910565b61194e60408301846118e6565b949350505050565b6000806040838503121561196d5761196c611765565b5b600061197b85828601611856565b925050602061198c8582860161178b565b9150509250929050565b6000819050919050565b6119a981611996565b82525050565b600060a0820190506119c46000830188611910565b6119d160208301876118e6565b6119de60408301866118e6565b6119eb60608301856119a0565b6119f860808301846118e6565b9695505050505050565b600080600060608486031215611a1b57611a1a611765565b5b6000611a298682870161178b565b9350506020611a3a8682870161178b565b9250506040611a4b8682870161178b565b9150509250925092565b7f4e487b7100000000000000000000000000000000000000000000000000000000600052603260045260246000fd5b6000819050919050565b6000819050919050565b6000611ab3611aae611aa984611a84565b611a8e565b61176a565b9050919050565b611ac381611a98565b82525050565b600060c082019050611ade6000830189611910565b611aeb6020830188611aba565b611af86040830187611910565b611b0560608301866118e6565b611b1260808301856119a0565b611b1f60a0830184611910565b979650505050505050565b600060c082019050611b3f6000830189611910565b611b4c60208301886118e6565b611b596040830187611910565b611b6660608301866118e6565b611b7360808301856119a0565b611b8060a0830184611910565b979650505050505050565b600082825260208201905092915050565b7f4f776e61626c653a2063616c6c6572206973206e6f7420746865206f776e6572600082015250565b6000611bd2602083611b8b565b9150611bdd82611b9c565b602082019050919050565b60006020820190508181036000830152611c0181611bc5565b9050919050565b600081905092915050565b50565b6000611c23600083611c08565b9150611c2e82611c13565b600082019050919050565b6000611c4482611c16565b9150819050919050565b600081519050611c5d8161183f565b92915050565b600060208284031215611c7957611c78611765565b5b6000611c8784828501611c4e565b91505092915050565b7f4e487b7100000000000000000000000000000000000000000000000000000000600052601160045260246000fd5b6000611cca8261176a565b9150611cd58361176a565b9250827fffffffffffffffffffffffffffffffffffffffffffffffffffffffffffffffff03821115611d0a57611d09611c90565b5b828201905092915050565b6000611d30611d2b611d2684611a84565b611a8e565b611996565b9050919050565b611d4081611d15565b82525050565b600060c082019050611d5b6000830189611910565b611d6860208301886118e6565b611d756040830187611910565b611d8260608301866118e6565b611d8f6080830185611d37565b611d9c60a08301846118e6565b979650505050505050565b6000611db28261176a565b9150611dbd8361176a565b925082821015611dd057611dcf611c90565b5b828203905092915050565b6000611de68261176a565b9150611df18361176a565b9250817fffffffffffffffffffffffffffffffffffffffffffffffffffffffffffffffff0483118215151615611e2a57611e29611c90565b5b828202905092915050565b7f4e487b7100000000000000000000000000000000000000000000000000000000600052601260045260246000fd5b6000611e6f8261176a565b9150611e7a8361176a565b925082611e8a57611e89611e35565b5b828204905092915050565b600060c082019050611eaa6000830189611910565b611eb760208301886118e6565b611ec46040830187611910565b611ed16060830186611aba565b611ede60808301856119a0565b611eeb60a08301846118e6565b979650505050505050565b600060c082019050611f0b6000830189611910565b611f1860208301886118e6565b611f256040830187611910565b611f3260608301866118e6565b611f3f60808301856119a0565b611f4c60a08301846118e6565b979650505050505050565b6000611f628261176a565b91507fffffffffffffffffffffffffffffffffffffffffffffffffffffffffffffffff8203611f9457611f93611c90565b5b600182019050919050565b6000819050919050565b611fba611fb58261176a565b611f9f565b82525050565b60008160601b9050919050565b6000611fd882611fc0565b9050919050565b6000611fea82611fcd565b9050919050565b612002611ffd8261182d565b611fdf565b82525050565b60006120148286611fa9565b6020820191506120248285611ff1565b6014820191506120348284611fa9565b602082019150819050949350505050565b60006120508261176a565b915061205b8361176a565b92508261206b5761206a611e35565b5b82820690509291505056fea2646970667358221220d565dacd068e5dc071a4d3f050d56b0110d961bf89d4969cc931a9d0f034175e64736f6c634300080e0033",
  "immutableReferences": {},
  "source": "pragma solidity ^0.8.13;\r\n\r\nabstract contract ERC721 {\r\n    function  totalSupply() public view virtual returns (uint256 total);\r\n    function balanceOf(address _owner) public view virtual returns (uint256 balance);\r\n    function ownerOf(uint256 _tokenId) external view virtual returns (address owner);\r\n    function approve(address _to, uint256 _tokenId) virtual external;\r\n    function getApproved(uint256 _tokenId) virtual external returns(address operator);\r\n    function setApprovalForAll(address to, bool approved) virtual external;\r\n    function isApprovedForAll(address owner, address operator) virtual external returns(bool approved);\r\n    function transfer(address _to, uint256 _tokenId) virtual external;\r\n    function SafeTransferFrom(address _from, address _to, uint256 _tokenId) virtual external;\r\n\r\n    event Transfer(address from, address to, uint256 tokenId);\r\n    event Approval(address owner, address approved, uint256 tokenId);\r\n}\r\n\r\ncontract NFTSwap {\r\n    event NFTApproved(address indexed contractAddr, uint256 indexed tokenId);\r\n    event UserApproved(address indexed contractAddr);\r\n    event TokenUnlisted(address indexed contractAddr, uint256 indexed tokenId);\r\n    event TokenListed(address indexed contractAddr, uint256 indexed tokenId);\r\n    event OfferMade(address requestedContractAddr, uint256 requestedTokenId, address offeredContractAddr, uint256 offeredTokenId, int exchangeValue, uint expires);\r\n    event OfferTaken(address takenContractAddr, uint256 takenTokenId, address givenContractAddr, uint256 givenTokenId, int exchangeValue, address winningAddress);\r\n    event OfferCancelled(address requestedContractAddr, uint256 requestedTokenId, address offeredContractAddr, uint256 offeredTokenId, int exchangeValue, uint expires);\r\n\r\n    // Initializing the state variable\r\n    uint randNonce = 0;\r\n\r\n    struct ListedToken {\r\n        address owner;\r\n        address contractAddr;\r\n        uint tokenId;\r\n    }\r\n\r\n    ListedToken[] public listedTokens;\r\n\r\n\r\n    struct Offer {\r\n        address offerer;\r\n        uint requestedIndex;\r\n        uint offeredIndex;\r\n        int exchangeValue;\r\n        uint expires;\r\n    }\r\n    Offer[] public offers;\r\n\r\n    address owner;\r\n      constructor() {\r\n        owner = msg.sender;\r\n    }\r\n    /**\r\n     * @dev Throws if called by any account other than the owner.\r\n     */\r\n    modifier onlyOwner() {\r\n        require(owner == msg.sender, \"Ownable: caller is not the owner\");\r\n        _;\r\n    }\r\n    \r\n    // Defining a function to generate\r\n// a random number\r\nfunction randomNumber() internal returns(uint)\r\n{\r\n   // increase nonce\r\n   randNonce++; \r\n   return uint(keccak256(abi.encodePacked(block.timestamp,\r\n                                          msg.sender,\r\n                                          randNonce))) %100;\r\n }\r\n\r\n\r\n    // //approves all users NFT the be later gambled with\r\n    // function approveNFT( uint256 _tokenId) external {\r\n    //     ERC721(msg.sender).approve( address(this), _tokenId);\r\n    //     emit NFTApproved(msg.sender, _tokenId);\r\n    // }\r\n\r\n    // //approves all users NFT the be later gambled with\r\n    // function approveUser() external {\r\n    //     ERC721(msg.sender).setApprovalForAll( address(this), true);\r\n    //     emit UserApproved(msg.sender);\r\n    // }\r\n\r\n    // //check to make sure our contract is fully approved to transfer all nfts\r\n    // function checkApprovedUser() public returns (bool) {\r\n    //     // This requires the token to be approved which should be handled by the UI\r\n    //     return ERC721(msg.sender).isApprovedForAll(msg.sender, address(this));\r\n\r\n    // }\r\n    // //check to make sure our contract is fully approved to transfer this nft\r\n    // function checkApprovedNFT( uint256 _tokenId) public returns (bool) {\r\n    //     // This requires the token to be approved which should be handled by the UI\r\n    //     return (address(this)) == ERC721(msg.sender).getApproved(_tokenId);\r\n\r\n    // }\r\n\r\n    function escrowToken(address _contractAddr, uint256 _tokenId) public returns (uint){\r\n        require(msg.sender ==   ERC721(_contractAddr).ownerOf(_tokenId));\r\n\r\n        listedTokens.push(ListedToken({\r\n            owner: msg.sender,\r\n            contractAddr: _contractAddr,\r\n            tokenId: _tokenId\r\n        }));\r\n        uint listedTokenIndex =  listedTokens.length; \r\n\r\n        emit TokenListed(_contractAddr, _tokenId);\r\n\r\n        return listedTokenIndex - 1;\r\n    }\r\n    function withdrawToken(uint _listedTokenIndex) external {\r\n        ListedToken storage withdrawnListedToken = listedTokens[_listedTokenIndex];\r\n        require(withdrawnListedToken.owner == msg.sender);\r\n\r\n        emit TokenUnlisted(withdrawnListedToken.contractAddr, withdrawnListedToken.tokenId);\r\n\r\n        delete listedTokens[_listedTokenIndex];\r\n    }\r\n\r\n\r\n    // Makes an offer for the token listed at _requestedIndex for the token listed at _offeredIndex with just NFT\r\n    function makeOffer(uint _requestedIndex, address _contractAddrOffered,uint256 _tokenIdOffered ,uint fee, uint _expiresIn) external payable returns (uint) {\r\n        require(msg.sender ==   ERC721(_contractAddrOffered).ownerOf(_tokenIdOffered));\r\n        require(msg.value == fee);\r\n        require(_expiresIn > 0);\r\n\r\n        ListedToken storage requestedToken = listedTokens[_requestedIndex];\r\n\r\n        // Can not make offers to non-listed token\r\n        require(requestedToken.owner != address(0x0));\r\n\r\n        uint _offeredIndex = escrowToken(_contractAddrOffered, _tokenIdOffered);\r\n\r\n        ListedToken storage offeredToken = listedTokens[_offeredIndex];\r\n\r\n        require(offeredToken.owner == msg.sender);\r\n\r\n         offers.push(Offer({\r\n            offerer: msg.sender,\r\n            requestedIndex: _requestedIndex,\r\n            offeredIndex: _offeredIndex,\r\n            exchangeValue: 0, //no money offered\r\n            expires: block.number + _expiresIn\r\n        }));\r\n        uint index = offers.length ;\r\n\r\n        emit OfferMade(requestedToken.contractAddr, requestedToken.tokenId, offeredToken.contractAddr, offeredToken.tokenId, 0, block.number + _expiresIn);\r\n\r\n        return index - 1;\r\n    }\r\n\r\n    // Makes an offer for the token listed at _requestedIndex with the sent funds (without offering a token in return)\r\n    function makeOfferWithFunds(uint _requestedIndex, uint _expiresIn, uint funds) external payable returns (uint) {\r\n        require(_expiresIn > 0);\r\n        require(msg.value == uint(funds * 102 / 100));\r\n        ListedToken storage requestedToken = listedTokens[_requestedIndex];\r\n\r\n        // Can not make offers to delisted token\r\n        require(requestedToken.owner != address(0x0));\r\n        \r\n\r\n        offers.push(Offer({\r\n            offerer: msg.sender,\r\n            requestedIndex: _requestedIndex,\r\n            offeredIndex: 0,                 // 0 means no token is offered (listed token id's start from 1, see constructor)\r\n            exchangeValue: int(funds),   // Exchange value is equal to the amount sent\r\n            expires: block.number + _expiresIn\r\n        }));\r\n\r\n        uint index = offers.length;\r\n\r\n        emit OfferMade(requestedToken.contractAddr, requestedToken.tokenId, address(0x0), 0, int(msg.value), block.number + _expiresIn);\r\n\r\n        return index - 1;\r\n    }\r\n\r\n//funds can only be positive\r\n        function takeOffer(uint _offerId, uint fee ) external payable {\r\n        Offer storage offer = offers[_offerId];\r\n        require(offer.expires > block.number);\r\n        \r\n        //exchange value should be greater than zero\r\n        require(offer.exchangeValue >= 0);\r\n\r\n        //this is the fee one must pay to play the game\r\n        require(msg.value == fee);\r\n\r\n\r\n        ListedToken storage listedToken = listedTokens[offer.requestedIndex];\r\n        require(listedToken.owner == msg.sender);\r\n\r\n\r\n        ListedToken storage offeredToken = listedTokens[offer.offeredIndex];\r\n\r\n        // If this is a \"cash-only\" offer\r\n        if (offeredToken.owner == address(0x0)) {  // We are actually checking if null\r\n\r\n            uint randomNum = randomNumber();\r\n            address winningAddress = address(0x0);\r\n            //give the token to the offerer\r\n            if(randomNum < 50){\r\n                ERC721(listedToken.contractAddr).SafeTransferFrom(msg.sender, offer.offerer, listedToken.tokenId);\r\n                winningAddress = offer.offerer;\r\n                listedToken.owner = offer.offerer;\r\n            }else{\r\n                //give money to lister\r\n                payable(msg.sender).transfer(uint(offer.exchangeValue));\r\n                winningAddress = msg.sender;\r\n                offeredToken.owner = msg.sender;\r\n            }\r\n            emit OfferTaken(address(0x0), 0, listedToken.contractAddr, listedToken.tokenId, offer.exchangeValue, winningAddress);\r\n        } else { // nft exchange\r\n            uint randomNum = randomNumber();\r\n            address winningAddress = address(0x0);\r\n\r\n            //give the NFT to the offerer\r\n            if(randomNum < 50){\r\n                ERC721(listedToken.contractAddr).SafeTransferFrom(msg.sender, offer.offerer, listedToken.tokenId);\r\n                winningAddress = offer.offerer;\r\n                listedToken.owner = offer.offerer;\r\n            }else{\r\n                //give NFT to lister\r\n                ERC721(listedToken.contractAddr).SafeTransferFrom(offer.offerer, msg.sender, listedToken.tokenId);\r\n                winningAddress = msg.sender;\r\n                offeredToken.owner = msg.sender;\r\n            }\r\n\r\n\r\n            emit OfferTaken(offeredToken.contractAddr, offeredToken.tokenId, listedToken.contractAddr, listedToken.tokenId, offer.exchangeValue , winningAddress);\r\n        }\r\n\r\n        // Remove offer since it's taken\r\n        delete offers[_offerId];\r\n    }\r\n\r\n     // This does not remove the approval of the token\r\n    function cancelOffer(uint _offerId) external {\r\n        Offer storage offer = offers[_offerId];\r\n        require(offer.offerer == msg.sender);\r\n\r\n        // Refund to offerer if exchangeValue is greater than 0, which means offerer sent it when making the offer\r\n        if (offer.exchangeValue > 0) {\r\n            payable(offer.offerer).transfer(uint(offer.exchangeValue));\r\n        }\r\n\r\n        ListedToken storage requestedToken = listedTokens[offer.requestedIndex];\r\n        ListedToken storage offeredToken = listedTokens[offer.offeredIndex];\r\n\r\n        emit OfferCancelled(requestedToken.contractAddr, requestedToken.tokenId, offeredToken.contractAddr, offeredToken.tokenId, offer.exchangeValue, offer.expires);\r\n\r\n        delete offers[_offerId];\r\n    }\r\n\r\n\r\n    function withdraw() public payable onlyOwner {\r\n\r\n    (bool os, ) = payable(owner).call{value: address(this).balance}(\"\");\r\n    require(os);\r\n    // =============================================================================\r\n  }\r\n}",
  "sourcePath": "C:\\Users\\thesn\\Documents\\GitHub\\NFT-Duels\\solidity code\\contracts\\NFTDuels.sol",
  "compiler": {
    "name": "solc",
    "version": "0.8.14+commit.80d49f37.Emscripten.clang"
  },
  "schemaVersion": "3.4.7",
  "updatedAt": "2022-06-01T04:05:07.017Z",
  "devdoc": {
    "kind": "dev",
    "methods": {},
    "version": 1
  },
  "userdoc": {
    "kind": "user",
    "methods": {},
    "version": 1
  }
}